:1000000000800020BD010000410C0000F90B000041
:10001000F90B0000F90B0000F90B0000F90B0000D0
:10002000F90B0000F90B0000F90B0000410C000077
:10003000410C0000F90B0000251D0000291D0000E7
:10004000410C0000410C0000410C0000410C00007C
:10005000410C0000410C0000410C0000410C00006C
:10006000410C0000410C0000410C0000410C00005C
:10007000410C0000410C0000410C0000410C00004C
:10008000410C0000410C0000410C0000410C00003C
:10009000410C0000410C0000410C0000410C00002C
:1000A000410C0000410C0000410C0000410C00001C
:1000B000410C0000410C0000410C0000410C00000C
:1000C000410C0000410C0000410C0000410C0000FC
:1000D000410C0000410C0000410C0000410C0000EC
:1000E000410C0000410C0000410C0000410C0000DC
:1000F000410C0000410C0000410C0000410C0000CC
:10010000410C0000410C0000410C0000410C0000BB
:10011000410C0000410C0000410C0000410C0000AB
:10012000410C0000410C0000410C0000410C00009B
:10013000410C0000410C0000410C0000410C00008B
:10014000410C0000410C0000410C0000410C00007B
:10015000410C0000410C0000410C0000410C00006B
:10016000410C0000DD110000410C0000410C0000BA
:10017000410C0000410C0000410C0000410C00004B
:10018000410C0000410C0000410C0000410C00003B
:10019000410C0000410C0000410C0000410C00002B
:1001A000410C0000410C0000410C0000410C00001B
:1001B000410C0000410C0000410C0000564B4CF279
:1001C000205210B51A804DF628121A8000BF00BFC9
:1001D00000F03AFD514B4FF010621A60504A9A609D
:1001E000504ADA60504A136813F4807304D14F49BF
:1001F0000B604FF4A85313604D4B1A78110703D5C9
:100200001A7842F008021A704A4B4B492A221A7097
:100210004A4A4B4B8B4204D252F8040F43F8040B6A
:10022000F8E7484B484900228B4202D243F8042B9E
:10023000FAE74649464A002352F8230041F82300D2
:1002400001336F2BF8D1434B434A802103F8011B44
:100250009342FBD1414B3D4A1A60414B8A221A70AE
:10026000A3F5805324225A70A0221A709A7992071B
:10027000FCD59A79D406FCD43A4A937903F00C035E
:10028000082B384BF9D105221A7143225A719A79F9
:100290009006FCD5334A9179324B4906FBD5324A58
:1002A0004FF0817111600521516020221A709A79F6
:1002B00002F00C020C2AFAD12C4B2D4A1A602D4B5D
:1002C0002D4A1A6000225A60072243F8042C2B4A58
:1002D000C3F80C2D62B600F08BFE144B1B68DA07D6
:1002E00005D5274800F016FD264B274A1A60274BF4
:1002F0001B785B0609D5234C234B22689A4204D114
:100300001F4800F007FD0023236000F0A3FC01F06C
:100310007DFD00F069FCFEE70E20054030800440C2
:10032000823F04000100002B10D0034014D0034092
:1003300002D0074000E00740288CFF1FF820000093
:100340002087FF1F288CFF1FD48DFF1F0082FF1FF7
:100350000000000000E400E05FE400E008ED00E0E1
:1003600000500640004006404480044004800440A1
:10037000C010050014E000E03F190100000020203B
:10038000E3CA9B621CE00340A5C3945A00F00740F7
:10039000FFFFFFFFFFFFFFFFFFFFFFFFFFFFFFFF6D
:1003A000FFFFFFFFFFFFFFFFFFFFFFFFFFFFFFFF5D
:1003B000FFFFFFFFFFFFFFFFFFFFFFFFFFFFFFFF4D
:1003C000FFFFFFFFFFFFFFFFFFFFFFFFFFFFFFFF3D
:1003D000FFFFFFFFFFFFFFFFFFFFFFFFFFFFFFFF2D
:1003E000FFFFFFFFFFFFFFFFFFFFFFFFFFFFFFFF1D
:1003F000FFFFFFFFFFFFFFFFFFFFFFFFFFFFFFFF0D
:10040000FFFFFFFFFFFFFFFFFFFFFFFFDEF9FFFF23
:1004100010B5054C237833B9044B13B10448AFF33E
:1004200000800123237010BD288CFF1F00000000F6
:10043000FC200000084B10B51BB108490848AFF379
:1004400000800848036803B910BD074B002BFBD0A0
:10045000BDE81040184700BF000000002C8CFF1FB3
:10046000FC200000288CFF1F0000000010B5084C85
:1004700096221146204600F099F9322000F068FDDE
:10048000012220461146BDE8104000F09BB900BF94
:10049000448CFF1F10B5104C96221146204600F0E8
:1004A00085F9642000F054FD01221146204600F039
:1004B00089F90A2000F04CFD20466FF09502962144
:1004C00000F074F9322000F043FD0122204611466D
:1004D000BDE8104000F076B9448CFF1F10B5104CF9
:1004E00096221146204600F061F9642000F030FDAC
:1004F00001221146204600F065F90A2000F028FD8F
:10050000204696226FF0950100F050F9322000F05D
:100510001FFD012220461146BDE8104000F052B9EF
:10052000448CFF1F10B5084C6FF0950220469621B1
:1005300000F03CF9642000F00BFD0122204611463A
:10054000BDE8104000F03EB9448CFF1F704700BF6B
:100550002DE9F041454C464D464800F06DF9E36801
:100560002A68A061934214DD63689A423DDB424EE3
:1005700032682968934254DDA3683C4F8B4246DCC5
:10058000A3683A4F93424EDCFB689A4205DBBDE814
:10059000F081394E32689A42F9DA63682968334F3C
:1005A000DFF8CC808B4211DC3268934204DD2A688C
:1005B000A1682E4D914250DC32689342E7DDA3687A
:1005C0009342E4DDBDE8F041FFF7ACBFB86881427B
:1005D00037DBA168254F9142E6DDFFF747FF326820
:1005E000FB689342D3DD7B68DFE7A1688A421EDBAC
:1005F000214EA16832681D4F9142BADDFFF736FFE8
:10060000FB6829688B42C5DD7B683268B2E7FFF77B
:1006100041FFFB682A689342BCDD7B6832689342E5
:10062000AEDCE368B7E7FFF759FFFB68B2E7FFF717
:1006300031FF2A68E3689342ABDD63689A42D7DBF7
:1006400095E7FFF727FF3268FB6893429FDD7B68E1
:10065000D8F800108B42BCDCA6E7FFF71BFF32681E
:10066000EB68934293DD6B68A7E700BF808CFF1FA8
:100670004487FF1F5C8CFF1F4887FF1F00B50921BF
:1006800085B0072208238DE80E00094805230622BD
:10069000042100F017F8074B074A0849DB68D268C5
:1006A000C968074805B05DF804EB00F0A5B800BFC5
:1006B000448CFF1F2087FF1F2C87FF1F3887FF1FD9
:1006C0005C8CFF1F2DE9F047044691468A46C8B26C
:1006D00001219846089F099E0A9D00F033FC5FFAAD
:1006E00089F0012100F02EFC5FFA88F0012100F072
:1006F00029FCF8B2012100F025FCF0B2012100F044
:1007000021FCE8B2012100F01DFCC4F800A0C4F8EF
:100710000490C4F80880E760266165612046BDE862
:10072000F08700BF38B50D1E04460DDB01210079AE
:1007300000F002FC207A002100F0FEFB2946207820
:10074000BDE8384000F0FABA0021007900F0F4FB6F
:100750006D42207A012100F0EFFB29462078BDE8A8
:10076000384000F0EBBA00BF38B50D1E04460DDB73
:100770000121007C00F0E0FB207D002100F0DCFB8B
:100780002946207BBDE8384000F0D8BA0021007C23
:1007900000F0D2FB6D42207D012100F0CDFB294607
:1007A000207BBDE8384000F0C9BA00BF38B5154617
:1007B0000446FFF7B7FF29462046BDE83840FFF75B
:1007C000D3BF00BF38B50446154609B955B938BD81
:1007D0000121007900F0B0FB0121207A00F0ACFB90
:1007E000002DF4D0207C012100F0A6FB207D01210A
:1007F000BDE8384000F0A0BBF8B506460868306098
:10080000486870608968B1601168F1605168316151
:100810003446926844F8142F1D1F06F1200755F83E
:10082000040F0121C0B200F08DFB2B6844F8043F97
:10083000A742F4D13046F8BD2DE9F04100F114068D
:1008400086B0B046071F00F10804032556F8040FD0
:100850000121C0B200F070FB57F8040FC0B200F0E5
:1008600027F954F8040FC0B200F022F90A2000F072
:100870006FFB58F8040F0021C0B200F05DFB013D92
:10088000E4D1069806B0BDE8F08100BF374A384988
:1008900013681B06FCD40B6813F08003F8D172B602
:1008A00034490A78002A5FD0334A3448F0B4344CD3
:1008B000176806682568D4680C303E441432006816
:1008C0001268304F35442C4420440244C2F34E0297
:1008D0002D4E2E482E4D2F4C42F400423A60376880
:1008E00006682D682C4A24680C303E440068126863
:1008F0002A4F35442C4420440244C2F34E02284E71
:100900002848294D294C42F400423A60376806686D
:100910002D68274A24680C303E4400681268254F31
:1009200035442C4420440244C2F34E02224E234854
:10093000234D244C42F400423A60376806682D6823
:10094000214A24680C303E440068126835442C4427
:1009500020440244C2F34E021C4842F400420260AA
:100960000B7062B6F0BC704762B6704724B00340AB
:1009700024B00B40998CFF1F38B003403CB00340BB
:1009800040B003402CB0034058B003405CB003407B
:1009900060B0034064B003406CB0034030B003402B
:1009A00038B00B403CB00B4040B00B4044B00B4063
:1009B0004CB00B402CB00B4058B00B405CB00B401F
:1009C00060B00B4064B00B406CB00B4030B00B40DB
:1009D00030B42948294A2A4B2A4D6024E121047069
:1009E00011701B78284C082B30D00A2B2748284937
:1009F00037D00C2B0CBF15223D2212232A60236016
:100A000002600B60234B24491B78244ABBB10123AD
:100A10000B601360224B23491B78234A012B26D9F4
:100A2000042B0FD9082B1ED9102B94BF86238723A4
:100A30000B6013601D4B01221A7030BC70470B60B5
:100A40001360E7E784230B601360F3E700F58E2063
:100A50000F490830012213232A60236002600B60D3
:100A6000D0E71922F7E785230B601360E2E78023C4
:100A70000B601360DEE700BF004007400140074005
:100A80004C87FF1F08B003400CB0034008B00B4078
:100A90000CB00B409C8CFF1F20B0034020B00B40DB
:100AA0004D87FF1F24B0034024B00B40998CFF1FDB
:100AB00028282FD8334B2DE9F0411E5CFF2E2BD078
:100AC000314B1B78002B2AD132062CD472B62F4D15
:100AD0002F4C2F46012326602B7062B672B6236816
:100AE0001B060CD43B781BB9F4E72B78002BF1D014
:100AF00062B601F07FF872B623681806F5D5254B6B
:100B00001B6800222A7062B6234A107843FA00F06C
:100B1000BDE8F081002070470020BDE8F081FFF7BC
:100B2000B5FE3206D2D572B61C4DDFF87C801C4C67
:100B300006F04007FFB206F03F06D8F80030DFB1FC
:100B400023F01003C8F8003001232660134A2B70ED
:100B500062B672B6236819060CD413781BB9ECE799
:100B60002B78002BE9D062B601F044F872B6236806
:100B70001B06F5D50B4BC3E743F01003C8F8003054
:100B8000E2E700BF481F0000998CFF1F9B8CFF1FEE
:100B900000B0034010B00340988CFF1F9A8CFF1FD9
:100BA00000B00B4010B00B400CB00B400A4A0B4990
:100BB000136843F4805313600B7843B9084BC02289
:100BC0001A70084B80F30C0000B218807047044B79
:100BD00080221A70F5E700BF2C8004409C8CFF1F18
:100BE00021C00C4000C00C4008B5FFF7AFFCFFF778
:100BF000AFFC00F0FFFFFAE708B5104C08E02368EF
:100C000059050DD423681A050FD42368DB0411D4C9
:100C100023685803F3D500F0E1FA23685905F1D5AC
:100C200000F00EF823681A05EFD500F009F82368E4
:100C3000DB04EDD500F004F8EAE700BF348004409F
:100C400008B5FFF7D9FF00BF014B10221A8070478B
:100C500000200540704700BF10B40F4B53F8302000
:100C600092F880422CB1012369B182F8803010BC27
:100C7000704703EBC0035B681A6841B922F00202B7
:100C80001A6010BC704782F8003110BC704742F007
:100C900003021A6010BC7047741F00001C4A02EB6C
:100CA000C00301295B6811D004291BD052F8300021
:100CB000002280F8802229B1022920D0032922D0E5
:100CC0001A6070474FF480721A60704752F8300013
:100CD0004FF4A27280F880121A601A6822F0200283
:100CE0001A60704752F830104FF4A272012081F858
:100CF00080021A601A6842F020021A60704740F2BF
:100D000003121A6070474FF481721A60704700BF77
:100D1000741F000030B4054B054D064C0022102115
:100D20001A602A602060196030BC704714D00340FC
:100D300004D0034000D00340704700BF282838B5D6
:100D40002ED0002904464FDD5F4B1B78012505FAA4
:100D500003F28A4202D8212837D938BD0338C2B2FB
:100D6000012A3AD9202C4AD0192C48D0574A126867
:100D700002FB011222FA03F31D2800F29B80DFE838
:100D800000F0928B847D9999766F999999999999A8
:100D900099999968615A53994C9999999999994552
:100DA000494B1B780B2B08D90C2B1CBF0C3B194152
:100DB0000846BDE83840FFF7F9BEC3F10C0399407F
:100DC0000846BDE83840FFF7F1BE2946FFF744FF6B
:100DD0002946BDE83840FFF761BF3D4A126802FB73
:100DE000011222FA03F3C7E72128B6D80021FFF742
:100DF00033FF20460121BDE83840FFF74FBF354A99
:100E0000126802FB011222FA03F3B5E73249334AB2
:100E10000B604FF45173136038BD3149314A0B6098
:100E20004FF45173136038BD2F49304A0B6040F2C4
:100E30004443136038BD2E492E4A0B6040F24443B0
:100E4000136038BD2C492D4A0B6040F244431360B7
:100E500038BD2B492B4A0B6040F24443136038BD28
:100E600029492A4A0B6040F24443136038BD28499F
:100E7000284A0B6040F24443136038BD2649274A94
:100E80000B6040F24443136038BD2549254A0B608E
:100E900040F24443136038BD2349244A0B604FF4A9
:100EA0005173136038BD2249224A0B604FF45173CD
:100EB000136038BD212C3FF650AF7F29D4BF0021ED
:100EC0000121204693E700BF4E87FF1F08800340A3
:100ED0000890034008800B4010800B4048A004405D
:100EE00018800B404CA004401880034008B0044018
:100EF0001080034004B004404080034018C0044008
:100F00003880034014C004402880034010B00440DF
:100F1000208003400CB004403080034010C00440E7
:100F2000488003401CC004401890034034900440A3
:100F30001090034030900440212801D8FFF78CBE68
:100F4000704700BF212801D8FFF7A8BE704700BF37
:100F50002DE9F843054672B6214F224B224A1B6801
:100F60003C68126862B6520102D5322B88BF013448
:100F7000A5B3C3F58C331D4EDFF86890DFF86880A9
:100F800003F23F134FF47A72A6FB031302FB04F43F
:100F900004EB131472B6D9F800103A68D8F800E0E0
:100FA00062B6C1F58C3303F23F13A6FB03031EF0B8
:100FB000806FC4EB13134FF47A7002D0322988BFCC
:100FC000013200FB0233B3F57A7F04D3013D05D033
:100FD00004F57A74DEE700F00DFEDBE7BDE8F88388
:100FE000A08CFF1F18E000E004ED00E0398EE3382C
:100FF000F8B52E4B2E49DFF8D4E0DFF8D4C02D4EE3
:101000002D4D2E4C2E4A2F4F4FF4000018604FF0FC
:10101000807018604FF0007018604FF080601860AA
:101020004FF00060186000200860282348F6FF7128
:10103000CCF80010CEF80030336013602B602360D2
:101040003B60B3629362092245F8242CC4F8D80FA0
:1010500005F57F65C7F8D41F07F5FF2707F5FA6781
:10106000C6F8F83F2B6006F5FF26C4F8D42F05F527
:10107000FD2504F5FF24386006F2F476124831604D
:1010800005F5FF6504F5FD642B6023600260FFF742
:101090009FFCFFF751FE1420FFF75AFF00F0D8FC29
:1010A0004FF48C70BDE8F840FFF752BF08E100E054
:1010B0000480034014800340248003402C800340BC
:1010C0001C8003403480034000800B400C800340B0
:1010D00008800340F0B472B61A491B4E012311F880
:1010E000014B194F9A00240742F0010505D556F827
:1010F000324064B156F83520BAB10133052BEED138
:1011000062B6124B00221A70F0BC00F01BBD0F4CEF
:101110000F4D217807EB43130830013958602170D7
:1011200047F8325062B6F0BC7047084A0949137854
:1011300007EBC5040830013B6060137047F83510B9
:1011400062B6F0E7842000000080FF1F798DFF1F4A
:1011500088004000C8004000431E032B1DD81B4AD6
:10116000400140F0100030B4104472B6184CE25CFC
:10117000032A1BD8DFE802F00212151703220D889C
:10118000E25410F0080F14BFC823882343EA054334
:1011900008314160036062B630BC704708300222FB
:1011A000EDE70522EBE708300422E8E7094A52F8A8
:1011B000230038B1084A52F82300416042F8231056
:1011C00062B6E9E742F82310034AF7E70080FF1F01
:1011D000888DFF1F508DFF1F608DFF1F2DE9F04F81
:1011E000DFF814B3DFF814A387B044E0AD4F4FEA43
:1011F000930807EBC809013ED9F8042003F008035F
:10120000F6B2A2F1080003F0FF04002B40F00381C6
:1012100057F838301B0C99B222F8081C002B00F04C
:10122000F180A14B22F8064C42F8044C53F82620DA
:10123000002A00F06C819D4D55F8263058609C4C7A
:1012400045F8260034F81630194424F8161000F03A
:1012500059FC002800F05481964A974B19F0080F6A
:1012600000F1080018BF1346C9F8040047F83830E9
:1012700008238BF800309BF80040E4B260071BD5D0
:101280008E4B1B78ABB18E490A7802F0FF032AB16E
:10129000013BDBB20B70002B00F0B58389490A7863
:1012A00002F0FF032AB1013BDBB20B70002B00F010
:1012B000F68004238BF8003004F0080303F0FF02EB
:1012C000002B00F0D5809AF80030DBB21E098DD1DA
:1012D0009C08744F57F8342007EBC401C2F3830213
:1012E000013A49680C2A7ED8DFE802F081817D7DD1
:1012F0007D7D7D7D427D7D7D07000868724B734D4D
:1013000001936C4B4A68724E47F8343081B240F218
:1013100081646D4B6A60286000220120A1423A611D
:101320001A60BA61307000F2F680B1F5D06F80F0CB
:10133000E882B1F5817F00F0D38200F2D881802964
:1013400000F04D81822940F09282A988614B01F022
:101350007F01042900F28C825F4C89000B442270CB
:1013600062701A78930740F13883207002203AE1C6
:10137000554B01931A6862B3584B5949544E18881B
:101380000C7896F800E04028054684F0010C28BF50
:10139000402544F00204BEF1000F81F800C0A0EB2C
:1013A000050007EBC40C0CBF8821C82180B28EF069
:1013B000010E41EA0541CCF80420188086F800E0CF
:1013C0002A4447F8341010B9402D18BF0022019B61
:1013D0001A603E4B1A88B2F5A06F04D100219A78AA
:1013E0005970404B1A70404A0123137040E7374A46
:1013F000158842F22100854200F052812D4A47F8BB
:101400003420F0E72B4A2C4B19F0080F18BF134675
:1014100047F838302CE700F095FB344A344952F84D
:101420002630002B00F02D8158688C5D42F8260094
:1014300003F10802C9F80420032C05D8DFE804F002
:10144000120F150204228A551A8819F0080F0CBFD2
:101450008823C82343EA024347F8383008E70222CA
:101460008A55F1E703228A55EEE705228A55EBE714
:10147000E00700F17881210600F1A281A20706D5DC
:101480001C4A1D4913780220DBB213700870E30672
:1014900002D5194B10221A7007B0BDE8F08F00F08A
:1014A00085FB06E70080FF1FFC8CFF1FA88CFF1F39
:1014B000C08DFF1FC800400088004000848DFF1FC2
:1014C0000D8DFF1F8C8DFF1FA48CFF1F708DFF1FC4
:1014D0000C8DFF1FC02007407C8DFF1FB88CFF1FA5
:1014E000788DFF1F9820074094200740508DFF1FE4
:1014F000888DFF1F882007408020074090200740EC
:10150000B74A47F83800137801331370B0E643F850
:101510002600B44D93E642F22104A14200F0AD80D2
:1015200000F20E81B1F5086F00F05481B1F5106F33
:1015300040F09D81AC4AA9781170AC4D042402E0C2
:101540000134142C0CD057F834301906F8D505EBBB
:10155000C40301345868083800F0F4FA142CF2D1AE
:10156000A349A44BA44A0291A449A54C9D4D0394C0
:1015700005964FF0000988461C46164604952068DB
:1015800028B1456800F0DEFA2846002DF9D1002385
:101590002360049B30681A46002342F8293028B1A2
:1015A000456800F0CFFA2846002DF9D100223260BC
:1015B000029A98F800301146002241F8042B039A51
:1015C0000291023B4FF0000122F81910032B00F2A8
:1015D000B481DFE813F0E201AE01E201AE01894C13
:1015E000022022706270EA88824280F00D82864971
:1015F0000D78402A45F0020E944607EBCE0028BF36
:101600004FF0400C04EB0C0344600293CCEB02005F
:101610004FEA0C484FF001090022C82444EA0803AD
:1016200085F0010447F83E3032700C70DFF8BCE101
:10163000764BDFF8D481002840F02081BCF1400FC8
:101640001BD144F0020407EBC403029FDFF89CE1C6
:101650005F60002A40F02781020442F0880286F889
:1016600000900D7007444EF834203B46402804D1CA
:101670000020674A019910800B60664A01231370AD
:10168000B1E68B5D032B00F2248101A252F823F016
:101690007112000071120000B5170000BB170000A6
:1016A000928862B95C4ACD1D11F8013B02F8013FF6
:1016B0008D42F9D1594A1268862A00F0C9805249F0
:1016C000524E0878327840F0020580F00100087030
:1016D00007EBC501002A4FF00000486082F00102CC
:1016E0000CBF8821C82147F83510327086E640F2D9
:1016F0000232914240F0B080A98801F07F010429B4
:1017000000F2B5806A88002A40F0B180444C89001C
:101710000C448146217841F00201217000200290A2
:1017200080468446044638490D7845F0020E07EBA2
:10173000CE03B9F1000F5C600CBF8824C8246DE7AC
:1017400042F22124A14240F08E80A988002940F075
:101750004281344B344A354C1B68AD781360814666
:101760000A462570DAE72B49204B3148264EDFF830
:10177000B0C0304DDFF8D4E02F4F02240C702F4C56
:1017800018605C6098602E48D8601A619A610D23D9
:1017900032702C4C8CF800302B4EFF232B70012024
:1017A0009F258EF800303A7033702570087007B0AE
:1017B000BDE8F08F00238B555AE501238B5557E583
:1017C0001749224B80220D2008701A70A2077FF55E
:1017D0005EAE55E6044A0B4C1278227003E700BF58
:1017E000798DFF1FA88CFF1F848DFF1F0080FF1FB6
:1017F000608DFF1FFC8CFF1F508DFF1F888DFF1F0A
:10180000C08DFF1F7C8DFF1F788DFF1F0C8DFF1F6C
:10181000B88CFF1F94200740C78DFF1FC88DFF1F86
:10182000C0200740A08CFF1FD08DFF1F988DFF1F89
:10183000880040008820074098200740BC8CFF1F8C
:10184000108DFF1F842007408C2007408020074018
:10185000754A0F21117032E7B1F5A06F07D1002250
:101860004FF001095AE742F221329142F7D06F4B13
:101870000F221A706E4A01231370B4E540287FF6D8
:10188000E0AE44F002040EEBC401029E4E60AAB129
:1018900083F80090674A88F8005033464038403358
:1018A0004EF83420E5E6029B86F80090020442F0F0
:1018B000C8020D7003444EF83420D7E683F8009038
:1018C000029B5D4A88F80050403840334EF834207F
:1018D000CFE619F0080F0CBF022303238B55C7E492
:1018E000A98801F07F010429C1D86A88002ABED1E5
:1018F0004E4C89000C448146217821F00201217070
:101900000CE74E4A5468002CB1D06888B5F804E062
:1019100003E00C325468002CA9D013888342F8D11C
:1019200053887345F5D1000A03280CBF207810892D
:1019300059E64FF0010388F8003009F10109B9F1C7
:10194000040F04F1040406F1040608F101087FF411
:1019500016AE3B4B059E3B4DDFF8F0800020187023
:101960004FF0010918F8013B05F8043B1A0719D498
:101970004FEA890444F0020244F00304002347F8CC
:10198000323047F83430304B9D4209F10109E9D13A
:1019900096F8009089F00102C0E64FF0000388F845
:1019A0000030CAE700F0AEF818B307EB49134FEA6E
:1019B000890408305860204B47F8343000F0A2F812
:1019C00068B144F0010307EBC30208305060194AC4
:1019D00047F83320CEE78146A0E6022003E6184B05
:1019E00044F001021B7847F83200154A01331370A6
:1019F000C0E7134B124A1B784FEA8904013347F8BA
:101A000034001370DAE700BE4028844628BF4FF048
:101A1000400C04EB0C03CCEB00004FEA0C480293A3
:101A200000224FF001097EE60D8DFF1FC020074008
:101A300094200740C8004000880040008820000033
:101A4000798DFF1FC4200740D42007408420000068
:101A50002DE9F04100F072F900231F491A4601EB0D
:101A6000C30041F833200133142B42604FF00004CF
:101A70001948F4D1194A1A4F13681A491A4D1B4EC6
:101A8000DFF874C0DFF874E0DFF8748043F480237B
:101A90001360C0F307233B70C0F307430B70000EC5
:101AA000FF2302F528322870D4328CF80030104D14
:101AB0008EF800300F483370012388F8003070260C
:101AC00081F850404FF40074102107F8183C2E7034
:101AD00004601170BDE8F0810080FF1F3480044075
:101AE0009C200740B0200740B4200740102007404A
:101AF00049E400E008E100E080200740882007403A
:101B00009420074072B60D480268B2FA82F30B2B9C
:101B100010DC4FF00041D94022EA0102026062B6B7
:101B2000074803EBC303DB00C2180021C150104675
:101B30005160704762B60020704700BF5087FF1F9A
:101B4000BC83FF1F0D4B0E4AC31AA2FB03231B09C4
:101B50000B2B0CD80B4A127852B972B60A484FF0C8
:101B60000041026821FA03F31A43026062B670472B
:101B7000064A1278002AF0D0FFF7ACBABC83FF1FE8
:101B8000398EE338798DFF1F5087FF1F848DFF1F2B
:101B9000044B054A1B6890881BB11A885B88D31ACE
:101BA00018447047948DFF1FC08DFF1F38B50E4B32
:101BB0001B7873B90D4C216861B103F0FF054B88A8
:101BC0000B800420FFF7C8FA256038BD084B0122BE
:101BD0001A7038BDFFF796FF0028F7D00146BDE820
:101BE00038400420FFF7B8BA8D8DFF1F908DFF1F7E
:101BF0008C8DFF1F2DE9F843314E337893B1314F6F
:101C00003A787AB90122D9073A7036D49A0719D4AA
:101C100000225B073A7005D52B4B1A6812B1EFF31F
:101C200005820AB1BDE8F883EFF3108172B6186837
:101C300018B1264C2278002A2ED00029F2D162B6A3
:101C4000BDE8F883DFF8908098F80020002ADFD004
:101C5000DFF88890002405E0013498F80030E4B201
:101C6000A34212D959F824502B6828461B6998477B
:101C70000028F1D02B699847EEE7FFF789FFC8B934
:101C8000134B1B781BB93378C0E73378C0E7337840
:101C900003F0FE033370B9E745691D60012323702B
:101CA0005DB1AA6101B962B600254577836898479E
:101CB0002570B7E700F040F8E2E7064B1D60F1E75A
:101CC0005487FF1F998DFF1FA88DFF1FAC8DFF1F2D
:101CD0005587FF1FA48DFF1FBC8DFF1FB08DFF1FF9
:101CE00070B5EFF3108272B60C4C206880B10C4EC8
:101CF00000254369236073B19D6102B962B64577DF
:101D000083689847EFF3108272B620680028F0D1FC
:101D100002B962B670BD3360EFE700BF9C8DFF1F54
:101D2000A08DFF1FFFF7DCBF024A13680133136069
:101D3000704700BFA08CFF1F704700BF70B584B014
:101D400072B6194B194D1A48702241260F24802172
:101D50001A702E701A460470197013781B06FCD581
:101D6000144B186862B6144B144C984298BF00EBA1
:101D7000800001A998BF40000A2200F021F801A9C3
:101D80002046002311F8012B01333AB10A2B20F829
:101D9000022FF7D11623237004B070BD5B00DBB2B5
:101DA000237004B070BD00BF000002400700024075
:101DB00006000240080002407F969800E487FF1F5B
:101DC000F0B44D1E2E46002400E00134B0FBF2F3C7
:101DD00002FB1300092800F130078ABF3730F8B240
:101DE000C0B206F8010F1846002BEED10A19537045
:101DF0004CB1107815F8016F28700133E01A834256
:101E000002F80169F5DB0846F0BC704770B50F4E6B
:101E10000F4D761BB61018BF002405D0013455F8BD
:101E2000043B9847A642F9D10A4E0B4D761B00F0B1
:101E300057F9B61018BF002406D0013455F8043BFA
:101E40009847A642F9D170BD70BD00BFEC200000DC
:101E5000EC200000F8200000EC200000024B13B141
:101E6000024800F005B87047000000007D1E000029
:101E7000002301461A46184600F014B838B5074D3D
:101E8000074C2C1BA41005D0013C55F8043D984785
:101E9000002CF9D1BDE8384000F02EB90000000058
:101EA000000000002DE9F047254C2568D5F8484191
:101EB0000646884692469946C4B360681F2817DCD8
:101EC000431C76B104EB80050122C5F888A0D4F844
:101ED000881182401143022EC4F88811C5F8089178
:101EE0001ED00230636044F820800020BDE8F087F7
:101EF000144B03B34FF4C870AFF300800446D0B165
:101F0000D5F84831002780E88800C5F848413846B0
:101F10000123C4F88871C4F88C71002EE1D0D1E798
:101F2000D4F88C110A43C4F88C21DAE705F5A674BD
:101F3000C5F84841C1E74FF0FF30BDE8F08700BF6A
:101F4000DC20000000000000050E08090D0C06074B
:101F50000F0400130393050E08090D0C06070F0468
:101F6000FFFFC585848687C4FFFF001303931A9281
:101F700017FFFFFF4008FE4340A004404408FE4313
:101F800044A004400018FE4300C004403000FE435B
:101F9000309004403400FE43349004401C18FE434B
:101FA0001CC004401018FE4310C004400818FE4333
:101FB00008C004400C18FE430CC004400C10FE4343
:101FC0000CB004401010FE4310B004401810FE4343
:101FD00018B004401C10FE431CB004401410FE4313
:101FE00014B004400418FE4304C004400010FE4333
:101FF00000B004400008FE4300A004400408FE4373
:1020000004A004400C08FE430CA004400808FE4352
:1020100008A004401418FE4314C004401818FE43DE
:1020200018C004400410FE4304B004400810FE43EE
:1020300008B004401400FE43149004404C08FE43D2
:102040004CA004400420FE4304D004402410FE436E
:1020500024B004402010FE4320B004402810FE436A
:1020600028B004402C10FE432CB004400020FE4356
:1020700000D004404808FE4348A004401000FE433E
:102080001090044000151915000100005887FF1F2B
:1020900012000000000200008487FF1F43000000C0
:1020A00000030000E087FF1F000000000103090497
:1020B0006C87FF1F0000000002030904C887FF1F90
:1020C0000000000003030904E487FF1F0000000074
:1020D0000000000000000000000000000088FF1F5A
:1020E000F8B500BFF8BC08BC9E4670475D1E0000F6
:0820F000350400007D0600002C
:0420F800F8B500BF78
:1020FC000F0000000D0000000E0000001700000093
:10210C001600000015000000100000001100000077
:10211C0014000000960000000D0200000A040800E4
:10212C00FFFFFFFF0101000012011001020000403F
:10213C00C016830475020102030100001803540049
:10214C00650065006E00730079006400750069001D
:10215C006E006F0009024300020100C03209040046
:10216C0000010202010005240010010524010101F7
:10217C000424020605240600010705820310004012
:10218C0009040100020A00000007050302400000D8
:10219C00070584024000000016035500530042005E
:1021AC002000530065007200690061006C000000A3
:1021BC00040309040C0300000000000000000000F0
:1021CC000000000000000000000000000000000003
:1021DC0000000000EC8AFF1F548BFF1FBC8BFF1FFD
:1021EC0000000000000000000000000000000000E3
:1021FC0000000000000000000000000000000000D3
:10220C0000000000000000000000000000000000C2
:10221C0000000000000000000000000000000000B2
:10222C0000000000000000000000000000000000A2
:10223C000000000000000000000000000000000092
:10224C000000000000000000000000000000000082
:10225C000000000000000000000000000000000072
:10226C000000000000000000000000000000000062
:10227C000000000000000000010000000000000051
:10228C000E33CDAB34126DE6ECDE05000B00000016
:10229C000000000000000000000000000000000032
:1022AC000000000000000000000000000000000022
:1022BC000000000000000000000000000000000012
:1022CC000000000000000000000000000000000002
:00000001FF
